{
  "contractName": "TodoList",
  "abi": [
    {
      "constant": true,
      "inputs": [],
      "name": "taskCount",
      "outputs": [
        {
          "internalType": "uint256",
          "name": "",
          "type": "uint256"
        }
      ],
      "payable": false,
      "stateMutability": "view",
      "type": "function"
    }
  ],
  "bytecode": "0x60806040526001600055348015601457600080fd5b506080806100236000396000f3fe6080604052348015600f57600080fd5b506004361060285760003560e01c8063b6cb58a514602d575b600080fd5b60336045565b60408051918252519081900360200190f35b6000548156fea265627a7a7231582077a0ac2c6c35c666d6ef75a56654dfe51fd9402a1f0dd28edf68217e8115878364736f6c63430005100032",
  "source": "pragma solidity >0.5.2;\n\ncontract TodoList {\n  uint public taskCount = 1;\n  \n//   struct Task {\n//     uint id;\n//     string content;\n//     bool completed;\n//   }\n//   mapping(uint => Task) public tasks;\n//   event TaskCreated(\n//     uint id,\n//     string content,\n//     bool completed\n//   );\n//   event TaskCompleted(\n//     uint id,\n//     bool completed\n//   );\n//  constructor() public {\n//         createTask(\"initialise create task todo list\");\n//   }\n//   function createTask(string memory _content) public {\n//     taskCount ++;\n//     tasks[taskCount] = Task(taskCount, _content, false);\n//     emit TaskCreated(taskCount, _content, false);\n//   }\n//   function toggleCompleted(uint _id) public {\n//     Task memory _task = tasks[_id];\n//     _task.completed = !_task.completed;\n//     tasks[_id] = _task;\n//     emit TaskCompleted(_id, _task.completed);\n//   }\n}",
  "sourcePath": "/home/kelvin/Documents/personal/projects/blockchain/todoList/contracts/TodoList.sol",
  "compiler": {
    "name": "solc",
    "version": "0.5.16+commit.9c3226ce.Emscripten.clang"
  },
  "schemaVersion": "3.4.7",
  "updatedAt": "2022-05-07T15:56:36.551Z",
  "devdoc": {
    "methods": {}
  },
  "userdoc": {
    "methods": {}
  }
}